{
  "contractName": "Certificate",
  "abi": [
    {
      "anonymous": false,
      "inputs": [
        {
          "indexed": false,
          "internalType": "uint256",
          "name": "certif_id",
          "type": "uint256"
        },
        {
          "indexed": false,
          "internalType": "address",
          "name": "issuing_org",
          "type": "address"
        },
        {
          "indexed": false,
          "internalType": "address",
          "name": "reciever_addr",
          "type": "address"
        },
        {
          "indexed": false,
          "internalType": "string",
          "name": "issued_for",
          "type": "string"
        },
        {
          "indexed": false,
          "internalType": "string",
          "name": "design_doc",
          "type": "string"
        },
        {
          "indexed": false,
          "internalType": "uint256",
          "name": "Date",
          "type": "uint256"
        },
        {
          "indexed": false,
          "internalType": "uint256",
          "name": "validity",
          "type": "uint256"
        }
      ],
      "name": "Newcertificate",
      "type": "event"
    },
    {
      "inputs": [
        {
          "internalType": "uint256",
          "name": "",
          "type": "uint256"
        }
      ],
      "name": "certificates",
      "outputs": [
        {
          "internalType": "address",
          "name": "issuing_org_addr",
          "type": "address"
        },
        {
          "internalType": "address",
          "name": "reciever_addr",
          "type": "address"
        },
        {
          "internalType": "string",
          "name": "issued_for",
          "type": "string"
        },
        {
          "internalType": "string",
          "name": "design_doc",
          "type": "string"
        },
        {
          "internalType": "uint256",
          "name": "Date",
          "type": "uint256"
        },
        {
          "internalType": "uint256",
          "name": "validity",
          "type": "uint256"
        }
      ],
      "stateMutability": "view",
      "type": "function",
      "constant": true
    },
    {
      "inputs": [
        {
          "internalType": "uint256",
          "name": "Id_recieved",
          "type": "uint256"
        },
        {
          "internalType": "address",
          "name": "_sender",
          "type": "address"
        },
        {
          "internalType": "address",
          "name": "_reciever",
          "type": "address"
        },
        {
          "internalType": "string",
          "name": "_issued_for",
          "type": "string"
        },
        {
          "internalType": "string",
          "name": "_design_doc",
          "type": "string"
        },
        {
          "internalType": "uint256",
          "name": "_Date",
          "type": "uint256"
        },
        {
          "internalType": "uint256",
          "name": "_validity",
          "type": "uint256"
        }
      ],
      "name": "verify_certificate",
      "outputs": [
        {
          "internalType": "bool",
          "name": "",
          "type": "bool"
        }
      ],
      "stateMutability": "view",
      "type": "function",
      "constant": true
    },
    {
      "inputs": [
        {
          "internalType": "address",
          "name": "_reciever",
          "type": "address"
        },
        {
          "internalType": "string",
          "name": "_purpose",
          "type": "string"
        },
        {
          "internalType": "string",
          "name": "_design_file",
          "type": "string"
        },
        {
          "internalType": "uint256",
          "name": "_date",
          "type": "uint256"
        },
        {
          "internalType": "uint256",
          "name": "_validity",
          "type": "uint256"
        }
      ],
      "name": "create_certificate",
      "outputs": [
        {
          "internalType": "uint256",
          "name": "",
          "type": "uint256"
        }
      ],
      "stateMutability": "nonpayable",
      "type": "function"
    },
    {
      "inputs": [
        {
          "internalType": "address",
          "name": "_reciever_addr",
          "type": "address"
        }
      ],
      "name": "view_all_certificate",
      "outputs": [
        {
          "components": [
            {
              "internalType": "address",
              "name": "issuing_org_addr",
              "type": "address"
            },
            {
              "internalType": "address",
              "name": "reciever_addr",
              "type": "address"
            },
            {
              "internalType": "string",
              "name": "issued_for",
              "type": "string"
            },
            {
              "internalType": "string",
              "name": "design_doc",
              "type": "string"
            },
            {
              "internalType": "uint256",
              "name": "Date",
              "type": "uint256"
            },
            {
              "internalType": "uint256",
              "name": "validity",
              "type": "uint256"
            }
          ],
          "internalType": "struct Certificate.Certif[]",
          "name": "",
          "type": "tuple[]"
        }
      ],
      "stateMutability": "view",
      "type": "function",
      "constant": true
    },
    {
      "inputs": [
        {
          "internalType": "address",
          "name": "_sender_addr",
          "type": "address"
        }
      ],
      "name": "view_all_certificate_sent",
      "outputs": [
        {
          "components": [
            {
              "internalType": "address",
              "name": "issuing_org_addr",
              "type": "address"
            },
            {
              "internalType": "address",
              "name": "reciever_addr",
              "type": "address"
            },
            {
              "internalType": "string",
              "name": "issued_for",
              "type": "string"
            },
            {
              "internalType": "string",
              "name": "design_doc",
              "type": "string"
            },
            {
              "internalType": "uint256",
              "name": "Date",
              "type": "uint256"
            },
            {
              "internalType": "uint256",
              "name": "validity",
              "type": "uint256"
            }
          ],
          "internalType": "struct Certificate.Certif[]",
          "name": "",
          "type": "tuple[]"
        }
      ],
      "stateMutability": "view",
      "type": "function",
      "constant": true
    }
  ],
  "bytecode": "0x608060405234801561001057600080fd5b50611b0c806100206000396000f3fe608060405234801561001057600080fd5b50600436106100575760003560e01c806337c1970c1461005c578063663b3e221461008c578063905ccee5146100c1578063a32f4d50146100f1578063ac555f6614610121575b600080fd5b61007660048036038101906100719190611181565b610151565b60405161008391906113c1565b60405180910390f35b6100a660048036038101906100a1919061140f565b610545565b6040516100b8969594939291906114a4565b60405180910390f35b6100db60048036038101906100d69190611578565b6106e1565b6040516100e89190611675565b60405180910390f35b61010b600480360381019061010691906117c0565b610a4d565b6040516101189190611873565b60405180910390f35b61013b60048036038101906101369190611181565b610c16565b60405161014891906113c1565b60405180910390f35b6060600080600090505b600080549050811015610202578373ffffffffffffffffffffffffffffffffffffffff16600082815481106101935761019261188e565b5b906000526020600020906006020160010160009054906101000a900473ffffffffffffffffffffffffffffffffffffffff1673ffffffffffffffffffffffffffffffffffffffff16036101ef5781806101eb906118ec565b9250505b80806101fa906118ec565b91505061015b565b5060008167ffffffffffffffff81111561021f5761021e611695565b5b60405190808252806020026020018201604052801561025857816020015b61024561100a565b81526020019060019003908161023d5790505b509050600080600090505b600080549050811015610539578573ffffffffffffffffffffffffffffffffffffffff166000828154811061029b5761029a61188e565b5b906000526020600020906006020160010160009054906101000a900473ffffffffffffffffffffffffffffffffffffffff1673ffffffffffffffffffffffffffffffffffffffff160361052657600081815481106102fc576102fb61188e565b5b90600052602060002090600602016040518060c00160405290816000820160009054906101000a900473ffffffffffffffffffffffffffffffffffffffff1673ffffffffffffffffffffffffffffffffffffffff1673ffffffffffffffffffffffffffffffffffffffff1681526020016001820160009054906101000a900473ffffffffffffffffffffffffffffffffffffffff1673ffffffffffffffffffffffffffffffffffffffff1673ffffffffffffffffffffffffffffffffffffffff1681526020016002820180546103d190611963565b80601f01602080910402602001604051908101604052809291908181526020018280546103fd90611963565b801561044a5780601f1061041f5761010080835404028352916020019161044a565b820191906000526020600020905b81548152906001019060200180831161042d57829003601f168201915b5050505050815260200160038201805461046390611963565b80601f016020809104026020016040519081016040528092919081815260200182805461048f90611963565b80156104dc5780601f106104b1576101008083540402835291602001916104dc565b820191906000526020600020905b8154815290600101906020018083116104bf57829003601f168201915b505050505081526020016004820154815260200160058201548152505083838151811061050c5761050b61188e565b5b60200260200101819052508180610522906118ec565b9250505b8080610531906118ec565b915050610263565b50819350505050919050565b6000818154811061055557600080fd5b90600052602060002090600602016000915090508060000160009054906101000a900473ffffffffffffffffffffffffffffffffffffffff16908060010160009054906101000a900473ffffffffffffffffffffffffffffffffffffffff16908060020180546105c490611963565b80601f01602080910402602001604051908101604052809291908181526020018280546105f090611963565b801561063d5780601f106106125761010080835404028352916020019161063d565b820191906000526020600020905b81548152906001019060200180831161062057829003601f168201915b50505050509080600301805461065290611963565b80601f016020809104026020016040519081016040528092919081815260200182805461067e90611963565b80156106cb5780601f106106a0576101008083540402835291602001916106cb565b820191906000526020600020905b8154815290600101906020018083116106ae57829003601f168201915b5050505050908060040154908060050154905086565b60008060008b815481106106f8576106f761188e565b5b90600052602060002090600602016040518060c00160405290816000820160009054906101000a900473ffffffffffffffffffffffffffffffffffffffff1673ffffffffffffffffffffffffffffffffffffffff1673ffffffffffffffffffffffffffffffffffffffff1681526020016001820160009054906101000a900473ffffffffffffffffffffffffffffffffffffffff1673ffffffffffffffffffffffffffffffffffffffff1673ffffffffffffffffffffffffffffffffffffffff1681526020016002820180546107cd90611963565b80601f01602080910402602001604051908101604052809291908181526020018280546107f990611963565b80156108465780601f1061081b57610100808354040283529160200191610846565b820191906000526020600020905b81548152906001019060200180831161082957829003601f168201915b5050505050815260200160038201805461085f90611963565b80601f016020809104026020016040519081016040528092919081815260200182805461088b90611963565b80156108d85780601f106108ad576101008083540402835291602001916108d8565b820191906000526020600020905b8154815290600101906020018083116108bb57829003601f168201915b505050505081526020016004820154815260200160058201548152505090508973ffffffffffffffffffffffffffffffffffffffff16816000015173ffffffffffffffffffffffffffffffffffffffff1614801561096557508873ffffffffffffffffffffffffffffffffffffffff16816020015173ffffffffffffffffffffffffffffffffffffffff16145b80156109c25750878760405160200161097f9291906119c4565b6040516020818303038152906040528051906020012081604001516040516020016109aa9190611a0e565b60405160208183030381529060405280519060200120145b8015610a1f575085856040516020016109dc9291906119c4565b604051602081830303815290604052805190602001208160600151604051602001610a079190611a0e565b60405160208183030381529060405280519060200120145b8015610a2e5750838160800151145b8015610a3d5750828160a00151145b9150509998505050505050505050565b6000806040518060c001604052803373ffffffffffffffffffffffffffffffffffffffff1681526020018873ffffffffffffffffffffffffffffffffffffffff16815260200187815260200186815260200185815260200184815250908060018154018082558091505060019003906000526020600020906006020160009091909190915060008201518160000160006101000a81548173ffffffffffffffffffffffffffffffffffffffff021916908373ffffffffffffffffffffffffffffffffffffffff16021790555060208201518160010160006101000a81548173ffffffffffffffffffffffffffffffffffffffff021916908373ffffffffffffffffffffffffffffffffffffffff1602179055506040820151816002019080519060200190610b7c92919061106c565b506060820151816003019080519060200190610b9992919061106c565b506080820151816004015560a08201518160050155505060006001600080549050610bc49190611a25565b90507f5467484114a3154528e3c85ec385bb46c1c0d351b834c2e6f3e67699fe376d2a81338989898989604051610c019796959493929190611a59565b60405180910390a18091505095945050505050565b6060600080600090505b600080549050811015610cc7578373ffffffffffffffffffffffffffffffffffffffff1660008281548110610c5857610c5761188e565b5b906000526020600020906006020160000160009054906101000a900473ffffffffffffffffffffffffffffffffffffffff1673ffffffffffffffffffffffffffffffffffffffff1603610cb4578180610cb0906118ec565b9250505b8080610cbf906118ec565b915050610c20565b5060008167ffffffffffffffff811115610ce457610ce3611695565b5b604051908082528060200260200182016040528015610d1d57816020015b610d0a61100a565b815260200190600190039081610d025790505b509050600080600090505b600080549050811015610ffe578573ffffffffffffffffffffffffffffffffffffffff1660008281548110610d6057610d5f61188e565b5b906000526020600020906006020160000160009054906101000a900473ffffffffffffffffffffffffffffffffffffffff1673ffffffffffffffffffffffffffffffffffffffff1603610feb5760008181548110610dc157610dc061188e565b5b90600052602060002090600602016040518060c00160405290816000820160009054906101000a900473ffffffffffffffffffffffffffffffffffffffff1673ffffffffffffffffffffffffffffffffffffffff1673ffffffffffffffffffffffffffffffffffffffff1681526020016001820160009054906101000a900473ffffffffffffffffffffffffffffffffffffffff1673ffffffffffffffffffffffffffffffffffffffff1673ffffffffffffffffffffffffffffffffffffffff168152602001600282018054610e9690611963565b80601f0160208091040260200160405190810160405280929190818152602001828054610ec290611963565b8015610f0f5780601f10610ee457610100808354040283529160200191610f0f565b820191906000526020600020905b815481529060010190602001808311610ef257829003601f168201915b50505050508152602001600382018054610f2890611963565b80601f0160208091040260200160405190810160405280929190818152602001828054610f5490611963565b8015610fa15780601f10610f7657610100808354040283529160200191610fa1565b820191906000526020600020905b815481529060010190602001808311610f8457829003601f168201915b5050505050815260200160048201548152602001600582015481525050838381518110610fd157610fd061188e565b5b60200260200101819052508180610fe7906118ec565b9250505b8080610ff6906118ec565b915050610d28565b50819350505050919050565b6040518060c00160405280600073ffffffffffffffffffffffffffffffffffffffff168152602001600073ffffffffffffffffffffffffffffffffffffffff168152602001606081526020016060815260200160008152602001600081525090565b82805461107890611963565b90600052602060002090601f01602090048101928261109a57600085556110e1565b82601f106110b357805160ff19168380011785556110e1565b828001600101855582156110e1579182015b828111156110e05782518255916020019190600101906110c5565b5b5090506110ee91906110f2565b5090565b5b8082111561110b5760008160009055506001016110f3565b5090565b6000604051905090565b600080fd5b600080fd5b600073ffffffffffffffffffffffffffffffffffffffff82169050919050565b600061114e82611123565b9050919050565b61115e81611143565b811461116957600080fd5b50565b60008135905061117b81611155565b92915050565b60006020828403121561119757611196611119565b5b60006111a58482850161116c565b91505092915050565b600081519050919050565b600082825260208201905092915050565b6000819050602082019050919050565b6111e381611143565b82525050565b600081519050919050565b600082825260208201905092915050565b60005b83811015611223578082015181840152602081019050611208565b83811115611232576000848401525b50505050565b6000601f19601f8301169050919050565b6000611254826111e9565b61125e81856111f4565b935061126e818560208601611205565b61127781611238565b840191505092915050565b6000819050919050565b61129581611282565b82525050565b600060c0830160008301516112b360008601826111da565b5060208301516112c660208601826111da565b50604083015184820360408601526112de8282611249565b915050606083015184820360608601526112f88282611249565b915050608083015161130d608086018261128c565b5060a083015161132060a086018261128c565b508091505092915050565b6000611337838361129b565b905092915050565b6000602082019050919050565b6000611357826111ae565b61136181856111b9565b935083602082028501611373856111ca565b8060005b858110156113af5784840389528151611390858261132b565b945061139b8361133f565b925060208a01995050600181019050611377565b50829750879550505050505092915050565b600060208201905081810360008301526113db818461134c565b905092915050565b6113ec81611282565b81146113f757600080fd5b50565b600081359050611409816113e3565b92915050565b60006020828403121561142557611424611119565b5b6000611433848285016113fa565b91505092915050565b61144581611143565b82525050565b600082825260208201905092915050565b6000611467826111e9565b611471818561144b565b9350611481818560208601611205565b61148a81611238565b840191505092915050565b61149e81611282565b82525050565b600060c0820190506114b9600083018961143c565b6114c6602083018861143c565b81810360408301526114d8818761145c565b905081810360608301526114ec818661145c565b90506114fb6080830185611495565b61150860a0830184611495565b979650505050505050565b600080fd5b600080fd5b600080fd5b60008083601f84011261153857611537611513565b5b8235905067ffffffffffffffff81111561155557611554611518565b5b6020830191508360018202830111156115715761157061151d565b5b9250929050565b600080600080600080600080600060e08a8c03121561159a57611599611119565b5b60006115a88c828d016113fa565b99505060206115b98c828d0161116c565b98505060406115ca8c828d0161116c565b97505060608a013567ffffffffffffffff8111156115eb576115ea61111e565b5b6115f78c828d01611522565b965096505060808a013567ffffffffffffffff81111561161a5761161961111e565b5b6116268c828d01611522565b945094505060a06116398c828d016113fa565b92505060c061164a8c828d016113fa565b9150509295985092959850929598565b60008115159050919050565b61166f8161165a565b82525050565b600060208201905061168a6000830184611666565b92915050565b600080fd5b7f4e487b7100000000000000000000000000000000000000000000000000000000600052604160045260246000fd5b6116cd82611238565b810181811067ffffffffffffffff821117156116ec576116eb611695565b5b80604052505050565b60006116ff61110f565b905061170b82826116c4565b919050565b600067ffffffffffffffff82111561172b5761172a611695565b5b61173482611238565b9050602081019050919050565b82818337600083830152505050565b600061176361175e84611710565b6116f5565b90508281526020810184848401111561177f5761177e611690565b5b61178a848285611741565b509392505050565b600082601f8301126117a7576117a6611513565b5b81356117b7848260208601611750565b91505092915050565b600080600080600060a086880312156117dc576117db611119565b5b60006117ea8882890161116c565b955050602086013567ffffffffffffffff81111561180b5761180a61111e565b5b61181788828901611792565b945050604086013567ffffffffffffffff8111156118385761183761111e565b5b61184488828901611792565b9350506060611855888289016113fa565b9250506080611866888289016113fa565b9150509295509295909350565b60006020820190506118886000830184611495565b92915050565b7f4e487b7100000000000000000000000000000000000000000000000000000000600052603260045260246000fd5b7f4e487b7100000000000000000000000000000000000000000000000000000000600052601160045260246000fd5b60006118f782611282565b91507fffffffffffffffffffffffffffffffffffffffffffffffffffffffffffffffff8203611929576119286118bd565b5b600182019050919050565b7f4e487b7100000000000000000000000000000000000000000000000000000000600052602260045260246000fd5b6000600282049050600182168061197b57607f821691505b60208210810361198e5761198d611934565b5b50919050565b600081905092915050565b60006119ab8385611994565b93506119b8838584611741565b82840190509392505050565b60006119d182848661199f565b91508190509392505050565b60006119e8826111e9565b6119f28185611994565b9350611a02818560208601611205565b80840191505092915050565b6000611a1a82846119dd565b915081905092915050565b6000611a3082611282565b9150611a3b83611282565b925082821015611a4e57611a4d6118bd565b5b828203905092915050565b600060e082019050611a6e600083018a611495565b611a7b602083018961143c565b611a88604083018861143c565b8181036060830152611a9a818761145c565b90508181036080830152611aae818661145c565b9050611abd60a0830185611495565b611aca60c0830184611495565b9897505050505050505056fea26469706673582212205fe5832386294cc2cedd548d8af38a2439c77d86074c2e4f7bc54fc7b3e499b164736f6c634300080d0033",
  "immutableReferences": {},
  "source": "// SPDX-License-Identifier: Unlicensed\npragma solidity ^0.8.13;\n\ncontract Certificate{\nstruct Certif{\n    address issuing_org_addr;\n    address reciever_addr;\n    string issued_for;\n    string design_doc;\n    uint Date;\n    uint validity;\n}\n\nevent Newcertificate(uint certif_id,address issuing_org,address reciever_addr,string issued_for,string design_doc,uint Date,uint validity);\n\nCertif[] public certificates;\n\nfunction verify_certificate(uint Id_recieved,address _sender,address _reciever,string calldata _issued_for,string calldata _design_doc,uint _Date,uint _validity) public view returns(bool){\n\n    Certif memory t=certificates[Id_recieved];\n    return (t.issuing_org_addr==_sender && t.reciever_addr==_reciever && keccak256(abi.encodePacked(t.issued_for))==keccak256(abi.encodePacked(_issued_for)) && keccak256(abi.encodePacked(t.design_doc))==keccak256(abi.encodePacked(_design_doc)) && t.Date==_Date && t.validity==_validity);\n}\n\nfunction create_certificate(address _reciever,string memory _purpose,string memory _design_file,uint _date,uint _validity) public returns(uint){\n    certificates.push(Certif(msg.sender,_reciever,_purpose,_design_file,_date,_validity));\n    uint id=certificates.length -1;\n    emit Newcertificate(id,msg.sender ,_reciever,_purpose, _design_file, _date, _validity);\n    return (id);\n}\n\nfunction view_all_certificate(address _reciever_addr)public view returns(Certif[] memory) {\nuint resultCount;\n\n    for (uint i = 0; i < certificates.length; i++) {\n        if (certificates[i].reciever_addr == _reciever_addr) {\n            resultCount++;  \n        }\n    }\n\n    Certif[] memory result = new Certif[](resultCount);  \n    uint256 j;\n\n    for (uint i = 0; i < certificates.length; i++) {\n        if (certificates[i].reciever_addr == _reciever_addr) {\n            result[j] = certificates[i];  \n            j++;\n        }\n    }\n\n    return result; \n}\n\nfunction view_all_certificate_sent(address _sender_addr)public view returns(Certif[] memory) {\n    uint resultCount;\n\n    for (uint i = 0; i < certificates.length; i++) {\n        if (certificates[i].issuing_org_addr == _sender_addr) {\n            resultCount++;  \n        }\n    }\n\n    Certif[] memory result = new Certif[](resultCount);  \n    uint256 j;\n\n    for (uint i = 0; i < certificates.length; i++) {\n        if (certificates[i].issuing_org_addr == _sender_addr) {\n            result[j] = certificates[i];  \n            j++;\n        }\n    }\n    return result; \n}\n\n}\n",
  "sourcePath": "/Users/muskaansharma/Desktop/MEGA FOLDER/PROJECTS/urek-a-thon/Ureck-a-thon-2023/smart_contracts/contracts/Certificate.sol",
  "compiler": {
    "name": "solc",
    "version": "0.8.13+commit.abaa5c0e.Emscripten.clang"
  },
  "schemaVersion": "3.4.12",
  "updatedAt": "2023-02-26T09:20:44.299Z",
  "networkType": "ethereum",
  "devdoc": {
    "kind": "dev",
    "methods": {},
    "version": 1
  },
  "userdoc": {
    "kind": "user",
    "methods": {},
    "version": 1
  }
}