{
  "contractName": "Certificate",
  "abi": [
    {
      "anonymous": false,
      "inputs": [
        {
          "indexed": false,
          "internalType": "uint256",
          "name": "certif_id",
          "type": "uint256"
        },
        {
          "indexed": false,
          "internalType": "address",
          "name": "issuing_org",
          "type": "address"
        },
        {
          "indexed": false,
          "internalType": "address",
          "name": "reciever_addr",
          "type": "address"
        },
        {
          "indexed": false,
          "internalType": "string",
          "name": "issued_for",
          "type": "string"
        },
        {
          "indexed": false,
          "internalType": "string",
          "name": "design_doc",
          "type": "string"
        },
        {
          "indexed": false,
          "internalType": "uint256",
          "name": "Date",
          "type": "uint256"
        },
        {
          "indexed": false,
          "internalType": "uint256",
          "name": "validity",
          "type": "uint256"
        }
      ],
      "name": "Newcertificate",
      "type": "event"
    },
    {
      "inputs": [
        {
          "internalType": "uint256",
          "name": "",
          "type": "uint256"
        }
      ],
      "name": "certificates",
      "outputs": [
        {
          "internalType": "address",
          "name": "issuing_org_addr",
          "type": "address"
        },
        {
          "internalType": "address",
          "name": "reciever_addr",
          "type": "address"
        },
        {
          "internalType": "string",
          "name": "issued_for",
          "type": "string"
        },
        {
          "internalType": "string",
          "name": "design_doc",
          "type": "string"
        },
        {
          "internalType": "uint256",
          "name": "Date",
          "type": "uint256"
        },
        {
          "internalType": "uint256",
          "name": "validity",
          "type": "uint256"
        }
      ],
      "stateMutability": "view",
      "type": "function",
      "constant": true
    },
    {
      "inputs": [
        {
          "internalType": "uint256",
          "name": "Id_recieved",
          "type": "uint256"
        },
        {
          "internalType": "address",
          "name": "_sender",
          "type": "address"
        },
        {
          "internalType": "address",
          "name": "_reciever",
          "type": "address"
        },
        {
          "internalType": "string",
          "name": "_issued_for",
          "type": "string"
        },
        {
          "internalType": "string",
          "name": "_design_doc",
          "type": "string"
        },
        {
          "internalType": "uint256",
          "name": "_Date",
          "type": "uint256"
        },
        {
          "internalType": "uint256",
          "name": "_validity",
          "type": "uint256"
        }
      ],
      "name": "verify_certificate",
      "outputs": [
        {
          "internalType": "bool",
          "name": "",
          "type": "bool"
        }
      ],
      "stateMutability": "view",
      "type": "function",
      "constant": true
    },
    {
      "inputs": [
        {
          "internalType": "address",
          "name": "_reciever",
          "type": "address"
        },
        {
          "internalType": "string",
          "name": "_purpose",
          "type": "string"
        },
        {
          "internalType": "string",
          "name": "_design_file",
          "type": "string"
        },
        {
          "internalType": "uint256",
          "name": "_date",
          "type": "uint256"
        },
        {
          "internalType": "uint256",
          "name": "_validity",
          "type": "uint256"
        }
      ],
      "name": "create_certificate",
      "outputs": [
        {
          "internalType": "uint256",
          "name": "",
          "type": "uint256"
        }
      ],
      "stateMutability": "nonpayable",
      "type": "function"
    },
    {
      "inputs": [
        {
          "internalType": "address",
          "name": "_reciever_addr",
          "type": "address"
        }
      ],
      "name": "view_all_certificate",
      "outputs": [
        {
          "components": [
            {
              "internalType": "address",
              "name": "issuing_org_addr",
              "type": "address"
            },
            {
              "internalType": "address",
              "name": "reciever_addr",
              "type": "address"
            },
            {
              "internalType": "string",
              "name": "issued_for",
              "type": "string"
            },
            {
              "internalType": "string",
              "name": "design_doc",
              "type": "string"
            },
            {
              "internalType": "uint256",
              "name": "Date",
              "type": "uint256"
            },
            {
              "internalType": "uint256",
              "name": "validity",
              "type": "uint256"
            }
          ],
          "internalType": "struct Certificate.Certif[]",
          "name": "",
          "type": "tuple[]"
        }
      ],
      "stateMutability": "view",
      "type": "function",
      "constant": true
    }
  ],
  "bytecode": "0x608060405234801561001057600080fd5b506116dd806100206000396000f3fe608060405234801561001057600080fd5b506004361061004c5760003560e01c806337c1970c14610051578063663b3e2214610081578063905ccee5146100b6578063a32f4d50146100e6575b600080fd5b61006b60048036038101906100669190610d52565b610116565b6040516100789190610f92565b60405180910390f35b61009b60048036038101906100969190610fe0565b61050a565b6040516100ad96959493929190611075565b60405180910390f35b6100d060048036038101906100cb9190611149565b6106a6565b6040516100dd9190611246565b60405180910390f35b61010060048036038101906100fb9190611391565b610a12565b60405161010d9190611444565b60405180910390f35b6060600080600090505b6000805490508110156101c7578373ffffffffffffffffffffffffffffffffffffffff16600082815481106101585761015761145f565b5b906000526020600020906006020160010160009054906101000a900473ffffffffffffffffffffffffffffffffffffffff1673ffffffffffffffffffffffffffffffffffffffff16036101b45781806101b0906114bd565b9250505b80806101bf906114bd565b915050610120565b5060008167ffffffffffffffff8111156101e4576101e3611266565b5b60405190808252806020026020018201604052801561021d57816020015b61020a610bdb565b8152602001906001900390816102025790505b509050600080600090505b6000805490508110156104fe578573ffffffffffffffffffffffffffffffffffffffff16600082815481106102605761025f61145f565b5b906000526020600020906006020160010160009054906101000a900473ffffffffffffffffffffffffffffffffffffffff1673ffffffffffffffffffffffffffffffffffffffff16036104eb57600081815481106102c1576102c061145f565b5b90600052602060002090600602016040518060c00160405290816000820160009054906101000a900473ffffffffffffffffffffffffffffffffffffffff1673ffffffffffffffffffffffffffffffffffffffff1673ffffffffffffffffffffffffffffffffffffffff1681526020016001820160009054906101000a900473ffffffffffffffffffffffffffffffffffffffff1673ffffffffffffffffffffffffffffffffffffffff1673ffffffffffffffffffffffffffffffffffffffff16815260200160028201805461039690611534565b80601f01602080910402602001604051908101604052809291908181526020018280546103c290611534565b801561040f5780601f106103e45761010080835404028352916020019161040f565b820191906000526020600020905b8154815290600101906020018083116103f257829003601f168201915b5050505050815260200160038201805461042890611534565b80601f016020809104026020016040519081016040528092919081815260200182805461045490611534565b80156104a15780601f10610476576101008083540402835291602001916104a1565b820191906000526020600020905b81548152906001019060200180831161048457829003601f168201915b50505050508152602001600482015481526020016005820154815250508383815181106104d1576104d061145f565b5b602002602001018190525081806104e7906114bd565b9250505b80806104f6906114bd565b915050610228565b50819350505050919050565b6000818154811061051a57600080fd5b90600052602060002090600602016000915090508060000160009054906101000a900473ffffffffffffffffffffffffffffffffffffffff16908060010160009054906101000a900473ffffffffffffffffffffffffffffffffffffffff169080600201805461058990611534565b80601f01602080910402602001604051908101604052809291908181526020018280546105b590611534565b80156106025780601f106105d757610100808354040283529160200191610602565b820191906000526020600020905b8154815290600101906020018083116105e557829003601f168201915b50505050509080600301805461061790611534565b80601f016020809104026020016040519081016040528092919081815260200182805461064390611534565b80156106905780601f1061066557610100808354040283529160200191610690565b820191906000526020600020905b81548152906001019060200180831161067357829003601f168201915b5050505050908060040154908060050154905086565b60008060008b815481106106bd576106bc61145f565b5b90600052602060002090600602016040518060c00160405290816000820160009054906101000a900473ffffffffffffffffffffffffffffffffffffffff1673ffffffffffffffffffffffffffffffffffffffff1673ffffffffffffffffffffffffffffffffffffffff1681526020016001820160009054906101000a900473ffffffffffffffffffffffffffffffffffffffff1673ffffffffffffffffffffffffffffffffffffffff1673ffffffffffffffffffffffffffffffffffffffff16815260200160028201805461079290611534565b80601f01602080910402602001604051908101604052809291908181526020018280546107be90611534565b801561080b5780601f106107e05761010080835404028352916020019161080b565b820191906000526020600020905b8154815290600101906020018083116107ee57829003601f168201915b5050505050815260200160038201805461082490611534565b80601f016020809104026020016040519081016040528092919081815260200182805461085090611534565b801561089d5780601f106108725761010080835404028352916020019161089d565b820191906000526020600020905b81548152906001019060200180831161088057829003601f168201915b505050505081526020016004820154815260200160058201548152505090508973ffffffffffffffffffffffffffffffffffffffff16816000015173ffffffffffffffffffffffffffffffffffffffff1614801561092a57508873ffffffffffffffffffffffffffffffffffffffff16816020015173ffffffffffffffffffffffffffffffffffffffff16145b801561098757508787604051602001610944929190611595565b60405160208183030381529060405280519060200120816040015160405160200161096f91906115df565b60405160208183030381529060405280519060200120145b80156109e4575085856040516020016109a1929190611595565b6040516020818303038152906040528051906020012081606001516040516020016109cc91906115df565b60405160208183030381529060405280519060200120145b80156109f35750838160800151145b8015610a025750828160a00151145b9150509998505050505050505050565b6000806040518060c001604052803373ffffffffffffffffffffffffffffffffffffffff1681526020018873ffffffffffffffffffffffffffffffffffffffff16815260200187815260200186815260200185815260200184815250908060018154018082558091505060019003906000526020600020906006020160009091909190915060008201518160000160006101000a81548173ffffffffffffffffffffffffffffffffffffffff021916908373ffffffffffffffffffffffffffffffffffffffff16021790555060208201518160010160006101000a81548173ffffffffffffffffffffffffffffffffffffffff021916908373ffffffffffffffffffffffffffffffffffffffff1602179055506040820151816002019080519060200190610b41929190610c3d565b506060820151816003019080519060200190610b5e929190610c3d565b506080820151816004015560a08201518160050155505060006001600080549050610b8991906115f6565b90507f5467484114a3154528e3c85ec385bb46c1c0d351b834c2e6f3e67699fe376d2a81338989898989604051610bc6979695949392919061162a565b60405180910390a18091505095945050505050565b6040518060c00160405280600073ffffffffffffffffffffffffffffffffffffffff168152602001600073ffffffffffffffffffffffffffffffffffffffff168152602001606081526020016060815260200160008152602001600081525090565b828054610c4990611534565b90600052602060002090601f016020900481019282610c6b5760008555610cb2565b82601f10610c8457805160ff1916838001178555610cb2565b82800160010185558215610cb2579182015b82811115610cb1578251825591602001919060010190610c96565b5b509050610cbf9190610cc3565b5090565b5b80821115610cdc576000816000905550600101610cc4565b5090565b6000604051905090565b600080fd5b600080fd5b600073ffffffffffffffffffffffffffffffffffffffff82169050919050565b6000610d1f82610cf4565b9050919050565b610d2f81610d14565b8114610d3a57600080fd5b50565b600081359050610d4c81610d26565b92915050565b600060208284031215610d6857610d67610cea565b5b6000610d7684828501610d3d565b91505092915050565b600081519050919050565b600082825260208201905092915050565b6000819050602082019050919050565b610db481610d14565b82525050565b600081519050919050565b600082825260208201905092915050565b60005b83811015610df4578082015181840152602081019050610dd9565b83811115610e03576000848401525b50505050565b6000601f19601f8301169050919050565b6000610e2582610dba565b610e2f8185610dc5565b9350610e3f818560208601610dd6565b610e4881610e09565b840191505092915050565b6000819050919050565b610e6681610e53565b82525050565b600060c083016000830151610e846000860182610dab565b506020830151610e976020860182610dab565b5060408301518482036040860152610eaf8282610e1a565b91505060608301518482036060860152610ec98282610e1a565b9150506080830151610ede6080860182610e5d565b5060a0830151610ef160a0860182610e5d565b508091505092915050565b6000610f088383610e6c565b905092915050565b6000602082019050919050565b6000610f2882610d7f565b610f328185610d8a565b935083602082028501610f4485610d9b565b8060005b85811015610f805784840389528151610f618582610efc565b9450610f6c83610f10565b925060208a01995050600181019050610f48565b50829750879550505050505092915050565b60006020820190508181036000830152610fac8184610f1d565b905092915050565b610fbd81610e53565b8114610fc857600080fd5b50565b600081359050610fda81610fb4565b92915050565b600060208284031215610ff657610ff5610cea565b5b600061100484828501610fcb565b91505092915050565b61101681610d14565b82525050565b600082825260208201905092915050565b600061103882610dba565b611042818561101c565b9350611052818560208601610dd6565b61105b81610e09565b840191505092915050565b61106f81610e53565b82525050565b600060c08201905061108a600083018961100d565b611097602083018861100d565b81810360408301526110a9818761102d565b905081810360608301526110bd818661102d565b90506110cc6080830185611066565b6110d960a0830184611066565b979650505050505050565b600080fd5b600080fd5b600080fd5b60008083601f840112611109576111086110e4565b5b8235905067ffffffffffffffff811115611126576111256110e9565b5b602083019150836001820283011115611142576111416110ee565b5b9250929050565b600080600080600080600080600060e08a8c03121561116b5761116a610cea565b5b60006111798c828d01610fcb565b995050602061118a8c828d01610d3d565b985050604061119b8c828d01610d3d565b97505060608a013567ffffffffffffffff8111156111bc576111bb610cef565b5b6111c88c828d016110f3565b965096505060808a013567ffffffffffffffff8111156111eb576111ea610cef565b5b6111f78c828d016110f3565b945094505060a061120a8c828d01610fcb565b92505060c061121b8c828d01610fcb565b9150509295985092959850929598565b60008115159050919050565b6112408161122b565b82525050565b600060208201905061125b6000830184611237565b92915050565b600080fd5b7f4e487b7100000000000000000000000000000000000000000000000000000000600052604160045260246000fd5b61129e82610e09565b810181811067ffffffffffffffff821117156112bd576112bc611266565b5b80604052505050565b60006112d0610ce0565b90506112dc8282611295565b919050565b600067ffffffffffffffff8211156112fc576112fb611266565b5b61130582610e09565b9050602081019050919050565b82818337600083830152505050565b600061133461132f846112e1565b6112c6565b9050828152602081018484840111156113505761134f611261565b5b61135b848285611312565b509392505050565b600082601f830112611378576113776110e4565b5b8135611388848260208601611321565b91505092915050565b600080600080600060a086880312156113ad576113ac610cea565b5b60006113bb88828901610d3d565b955050602086013567ffffffffffffffff8111156113dc576113db610cef565b5b6113e888828901611363565b945050604086013567ffffffffffffffff81111561140957611408610cef565b5b61141588828901611363565b935050606061142688828901610fcb565b925050608061143788828901610fcb565b9150509295509295909350565b60006020820190506114596000830184611066565b92915050565b7f4e487b7100000000000000000000000000000000000000000000000000000000600052603260045260246000fd5b7f4e487b7100000000000000000000000000000000000000000000000000000000600052601160045260246000fd5b60006114c882610e53565b91507fffffffffffffffffffffffffffffffffffffffffffffffffffffffffffffffff82036114fa576114f961148e565b5b600182019050919050565b7f4e487b7100000000000000000000000000000000000000000000000000000000600052602260045260246000fd5b6000600282049050600182168061154c57607f821691505b60208210810361155f5761155e611505565b5b50919050565b600081905092915050565b600061157c8385611565565b9350611589838584611312565b82840190509392505050565b60006115a2828486611570565b91508190509392505050565b60006115b982610dba565b6115c38185611565565b93506115d3818560208601610dd6565b80840191505092915050565b60006115eb82846115ae565b915081905092915050565b600061160182610e53565b915061160c83610e53565b92508282101561161f5761161e61148e565b5b828203905092915050565b600060e08201905061163f600083018a611066565b61164c602083018961100d565b611659604083018861100d565b818103606083015261166b818761102d565b9050818103608083015261167f818661102d565b905061168e60a0830185611066565b61169b60c0830184611066565b9897505050505050505056fea2646970667358221220e35ea6c4edcbcafc79ab63fa1769800455102a7b7532aa953cdfee308721b0e364736f6c634300080d0033",
  "immutableReferences": {},
  "source": "// SPDX-License-Identifier: Unlicensed\npragma solidity ^0.8.13;\n\ncontract Certificate{\n struct Certif{\n  address issuing_org_addr;\n  address reciever_addr;\n  string issued_for;\n  string design_doc;\n  uint Date;\n  uint validity;\n }\n\n event Newcertificate(uint certif_id,address issuing_org,address reciever_addr,string issued_for,string design_doc,uint Date,uint validity);\n\n Certif[] public certificates;\n\n function verify_certificate(uint Id_recieved,address _sender,address _reciever,string calldata _issued_for,string calldata _design_doc,uint _Date,uint _validity) public view returns(bool){\n  \n  Certif memory t=certificates[Id_recieved];\n  return (t.issuing_org_addr==_sender && t.reciever_addr==_reciever && keccak256(abi.encodePacked(t.issued_for))==keccak256(abi.encodePacked(_issued_for)) && keccak256(abi.encodePacked(t.design_doc))==keccak256(abi.encodePacked(_design_doc)) && t.Date==_Date && t.validity==_validity);\n }\n\n function create_certificate(address _reciever,string memory _purpose,string memory _design_file,uint _date,uint _validity) public returns(uint){\n  certificates.push(Certif(msg.sender,_reciever,_purpose,_design_file,_date,_validity));\n  uint id=certificates.length -1;\n  emit Newcertificate(id,msg.sender ,_reciever,_purpose, _design_file, _date, _validity);\n  return (id);\n }\n \n \n\n  function view_all_certificate(address _reciever_addr)public view returns(Certif[] memory) {\n   uint resultCount;\n\n   for (uint i = 0; i < certificates.length; i++) {\n        if (certificates[i].reciever_addr == _reciever_addr) {\n            resultCount++;  \n        }\n    }\n\n    Certif[] memory result = new Certif[](resultCount);  \n    uint256 j;\n\n    for (uint i = 0; i < certificates.length; i++) {\n        if (certificates[i].reciever_addr == _reciever_addr) {\n            result[j] = certificates[i];  \n            j++;\n        }\n    }\n\n    return result; \n  }\n\n}\n",
  "sourcePath": "/Users/muskaansharma/Desktop/MEGA FOLDER/PROJECTS/urek-a-thon/Ureck-a-thon-2023/smart_contracts/contracts/Certificate.sol",
  "compiler": {
    "name": "solc",
    "version": "0.8.13+commit.abaa5c0e.Emscripten.clang"
  },
  "schemaVersion": "3.4.12",
  "updatedAt": "2023-02-25T09:05:20.132Z",
  "networkType": "ethereum",
  "devdoc": {
    "kind": "dev",
    "methods": {},
    "version": 1
  },
  "userdoc": {
    "kind": "user",
    "methods": {},
    "version": 1
  }
}