{
  "contractName": "VerifyIssuer",
  "abi": [
    {
      "inputs": [
        {
          "internalType": "uint256",
          "name": "",
          "type": "uint256"
        }
      ],
      "name": "IssuerList",
      "outputs": [
        {
          "internalType": "uint256",
          "name": "inst_id",
          "type": "uint256"
        },
        {
          "internalType": "address",
          "name": "inst_addr",
          "type": "address"
        }
      ],
      "stateMutability": "view",
      "type": "function",
      "constant": true
    },
    {
      "inputs": [
        {
          "internalType": "uint256",
          "name": "_id",
          "type": "uint256"
        },
        {
          "internalType": "address",
          "name": "_issuerAddr",
          "type": "address"
        }
      ],
      "name": "Verify",
      "outputs": [
        {
          "internalType": "bool",
          "name": "",
          "type": "bool"
        }
      ],
      "stateMutability": "view",
      "type": "function",
      "constant": true
    }
  ],
  "bytecode": "0x608060405234801561001057600080fd5b50610436806100206000396000f3fe608060405234801561001057600080fd5b50600436106100365760003560e01c8063b9ae2c901461003b578063d9a329fb1461006b575b600080fd5b61005560048036038101906100509190610270565b61009c565b60405161006291906102cb565b60405180910390f35b610085600480360381019061008091906102e6565b610183565b604051610093929190610331565b60405180910390f35b600080600090505b6000805490508110156101775783600082815481106100c6576100c561035a565b5b90600052602060002090600202016000015414801561015557508273ffffffffffffffffffffffffffffffffffffffff166000828154811061010b5761010a61035a565b5b906000526020600020906002020160010160009054906101000a900473ffffffffffffffffffffffffffffffffffffffff1673ffffffffffffffffffffffffffffffffffffffff16145b1561016457600191505061017d565b808061016f906103b8565b9150506100a4565b50600090505b92915050565b6000818154811061019357600080fd5b90600052602060002090600202016000915090508060000154908060010160009054906101000a900473ffffffffffffffffffffffffffffffffffffffff16905082565b600080fd5b6000819050919050565b6101ef816101dc565b81146101fa57600080fd5b50565b60008135905061020c816101e6565b92915050565b600073ffffffffffffffffffffffffffffffffffffffff82169050919050565b600061023d82610212565b9050919050565b61024d81610232565b811461025857600080fd5b50565b60008135905061026a81610244565b92915050565b60008060408385031215610287576102866101d7565b5b6000610295858286016101fd565b92505060206102a68582860161025b565b9150509250929050565b60008115159050919050565b6102c5816102b0565b82525050565b60006020820190506102e060008301846102bc565b92915050565b6000602082840312156102fc576102fb6101d7565b5b600061030a848285016101fd565b91505092915050565b61031c816101dc565b82525050565b61032b81610232565b82525050565b60006040820190506103466000830185610313565b6103536020830184610322565b9392505050565b7f4e487b7100000000000000000000000000000000000000000000000000000000600052603260045260246000fd5b7f4e487b7100000000000000000000000000000000000000000000000000000000600052601160045260246000fd5b60006103c3826101dc565b91507fffffffffffffffffffffffffffffffffffffffffffffffffffffffffffffffff82036103f5576103f4610389565b5b60018201905091905056fea2646970667358221220d14d8d25f5045c1750c41e2df69e5062ad16ddfb9b9cb33383f861f766d583ce64736f6c634300080d0033",
  "immutableReferences": {},
  "source": "// SPDX-License-Identifier: Unlicensed\npragma solidity ^0.8.13;\n\ncontract VerifyIssuer{\n\n struct Institute {\n  uint inst_id;\n  address inst_addr;\n }\n Institute[] public IssuerList;\n\n\n function Verify(uint _id,address _issuerAddr)public view returns(bool){\n  for (uint i = 0; i < IssuerList.length; i++) {\n        if (IssuerList[i].inst_id == _id && IssuerList[i].inst_addr == _issuerAddr) {\n         return (true);\n        }\n    }\n    return(false);\n }\n\n}",
  "sourcePath": "/Users/muskaansharma/Desktop/MEGA FOLDER/PROJECTS/urek-a-thon/Ureck-a-thon-2023/smart_contracts/contracts/VerificationIssuer.sol",
  "compiler": {
    "name": "solc",
    "version": "0.8.13+commit.abaa5c0e.Emscripten.clang"
  },
  "schemaVersion": "3.4.12",
  "updatedAt": "2023-02-26T09:20:44.325Z",
  "networkType": "ethereum",
  "devdoc": {
    "kind": "dev",
    "methods": {},
    "version": 1
  },
  "userdoc": {
    "kind": "user",
    "methods": {},
    "version": 1
  }
}